{
  "_format": "hh-sol-artifact-1",
  "contractName": "ZoneAlert",
  "sourceName": "contracts/ZoneAlert.sol",
  "abi": [
    {
      "anonymous": false,
      "inputs": [
        {
          "indexed": true,
          "internalType": "address",
          "name": "sender",
          "type": "address"
        },
        {
          "indexed": false,
          "internalType": "string",
          "name": "message",
          "type": "string"
        }
      ],
      "name": "AlertPosted",
      "type": "event"
    },
    {
      "inputs": [
        {
          "internalType": "string",
          "name": "message",
          "type": "string"
        }
      ],
      "name": "postAlert",
      "outputs": [],
      "stateMutability": "nonpayable",
      "type": "function"
    }
  ],
  "bytecode": "0x6080604052348015600f57600080fd5b506102148061001f6000396000f3fe608060405234801561001057600080fd5b506004361061002b5760003560e01c8063361f49b114610030575b600080fd5b61004a6004803603810190610045919061010f565b61004c565b005b3373ffffffffffffffffffffffffffffffffffffffff167f77220833247c24a2e21cb58ce92a9b5907ef3f9182877df31980aad53a50cbdd83836040516100949291906101ba565b60405180910390a25050565b600080fd5b600080fd5b600080fd5b600080fd5b600080fd5b60008083601f8401126100cf576100ce6100aa565b5b8235905067ffffffffffffffff8111156100ec576100eb6100af565b5b602083019150836001820283011115610108576101076100b4565b5b9250929050565b60008060208385031215610126576101256100a0565b5b600083013567ffffffffffffffff811115610144576101436100a5565b5b610150858286016100b9565b92509250509250929050565b600082825260208201905092915050565b82818337600083830152505050565b6000601f19601f8301169050919050565b6000610199838561015c565b93506101a683858461016d565b6101af8361017c565b840190509392505050565b600060208201905081810360008301526101d581848661018d565b9050939250505056fea264697066735822122050f9fbea0e2d6b25f8d82d3b139e23099eeab42e6096509f52483f816c33af7b64736f6c634300081c0033",
  "linkReferences": {},
  "deployedLinkReferences": {}
}