{
  "_format": "hh-sol-artifact-1",
  "contractName": "ZoneAlert",
  "sourceName": "contracts/ZoneAlert.sol",
  "abi": [
    {
      "anonymous": false,
      "inputs": [
        {
          "indexed": true,
          "internalType": "address",
          "name": "sender",
          "type": "address"
        },
        {
          "indexed": true,
          "internalType": "uint256",
          "name": "zoneNumber",
          "type": "uint256"
        },
        {
          "indexed": false,
          "internalType": "string",
          "name": "message",
          "type": "string"
        },
        {
          "indexed": false,
          "internalType": "string",
          "name": "numberPlate",
          "type": "string"
        },
        {
          "indexed": false,
          "internalType": "string",
          "name": "make",
          "type": "string"
        },
        {
          "indexed": false,
          "internalType": "string",
          "name": "model",
          "type": "string"
        },
        {
          "indexed": false,
          "internalType": "string",
          "name": "wtc",
          "type": "string"
        }
      ],
      "name": "AlertPosted",
      "type": "event"
    },
    {
      "inputs": [
        {
          "internalType": "uint256",
          "name": "zoneNumber",
          "type": "uint256"
        },
        {
          "internalType": "string",
          "name": "message",
          "type": "string"
        },
        {
          "internalType": "string",
          "name": "numberPlate",
          "type": "string"
        },
        {
          "internalType": "string",
          "name": "make",
          "type": "string"
        },
        {
          "internalType": "string",
          "name": "model",
          "type": "string"
        },
        {
          "internalType": "string",
          "name": "wtc",
          "type": "string"
        }
      ],
      "name": "postAlert",
      "outputs": [],
      "stateMutability": "nonpayable",
      "type": "function"
    }
  ],
  "bytecode": "0x6080604052348015600f57600080fd5b506103a48061001f6000396000f3fe608060405234801561001057600080fd5b506004361061002b5760003560e01c8063c3c3877f14610030575b600080fd5b61004a6004803603810190610045919061015f565b61004c565b005b8a3373ffffffffffffffffffffffffffffffffffffffff167f155b30b0ca12724c8cf09411a3c4b9347d6deb4e8a45ec60340387d7710437a28c8c8c8c8c8c8c8c8c8c6040516100a59a999897969594939291906102ee565b60405180910390a35050505050505050505050565b600080fd5b600080fd5b6000819050919050565b6100d7816100c4565b81146100e257600080fd5b50565b6000813590506100f4816100ce565b92915050565b600080fd5b600080fd5b600080fd5b60008083601f84011261011f5761011e6100fa565b5b8235905067ffffffffffffffff81111561013c5761013b6100ff565b5b60208301915083600182028301111561015857610157610104565b5b9250929050565b600080600080600080600080600080600060c08c8e031215610184576101836100ba565b5b60006101928e828f016100e5565b9b505060208c013567ffffffffffffffff8111156101b3576101b26100bf565b5b6101bf8e828f01610109565b9a509a505060408c013567ffffffffffffffff8111156101e2576101e16100bf565b5b6101ee8e828f01610109565b985098505060608c013567ffffffffffffffff811115610211576102106100bf565b5b61021d8e828f01610109565b965096505060808c013567ffffffffffffffff8111156102405761023f6100bf565b5b61024c8e828f01610109565b945094505060a08c013567ffffffffffffffff81111561026f5761026e6100bf565b5b61027b8e828f01610109565b92509250509295989b509295989b9093969950565b600082825260208201905092915050565b82818337600083830152505050565b6000601f19601f8301169050919050565b60006102cd8385610290565b93506102da8385846102a1565b6102e3836102b0565b840190509392505050565b600060a0820190508181036000830152610309818c8e6102c1565b9050818103602083015261031e818a8c6102c1565b9050818103604083015261033381888a6102c1565b905081810360608301526103488186886102c1565b9050818103608083015261035d8184866102c1565b90509b9a505050505050505050505056fea2646970667358221220bf7d4a7291b38f319e531e291bc34fccfc18eec64f1a6e8177a022e22a5c196564736f6c634300081c0033",
  "linkReferences": {},
  "deployedLinkReferences": {}
}