{
  "_format": "hh-sol-artifact-1",
  "contractName": "ZoneAlert",
  "sourceName": "contracts/ZoneAlert.sol",
  "abi": [
    {
      "anonymous": false,
      "inputs": [
        {
          "indexed": true,
          "internalType": "address",
          "name": "sender",
          "type": "address"
        },
        {
          "indexed": true,
          "internalType": "uint256",
          "name": "zoneNumber",
          "type": "uint256"
        },
        {
          "indexed": false,
          "internalType": "string",
          "name": "message",
          "type": "string"
        },
        {
          "indexed": false,
          "internalType": "string",
          "name": "numberPlate",
          "type": "string"
        },
        {
          "indexed": false,
          "internalType": "string",
          "name": "make",
          "type": "string"
        },
        {
          "indexed": false,
          "internalType": "string",
          "name": "model",
          "type": "string"
        },
        {
          "indexed": false,
          "internalType": "string",
          "name": "wtc",
          "type": "string"
        },
        {
          "indexed": false,
          "internalType": "int256",
          "name": "latitude",
          "type": "int256"
        },
        {
          "indexed": false,
          "internalType": "int256",
          "name": "longitude",
          "type": "int256"
        },
        {
          "indexed": false,
          "internalType": "uint256",
          "name": "timestampMillis",
          "type": "uint256"
        }
      ],
      "name": "AlertPosted",
      "type": "event"
    },
    {
      "inputs": [
        {
          "internalType": "uint256",
          "name": "zoneNumber",
          "type": "uint256"
        },
        {
          "internalType": "string",
          "name": "message",
          "type": "string"
        },
        {
          "internalType": "string",
          "name": "numberPlate",
          "type": "string"
        },
        {
          "internalType": "string",
          "name": "make",
          "type": "string"
        },
        {
          "internalType": "string",
          "name": "model",
          "type": "string"
        },
        {
          "internalType": "string",
          "name": "wtc",
          "type": "string"
        },
        {
          "internalType": "int256",
          "name": "latitude",
          "type": "int256"
        },
        {
          "internalType": "int256",
          "name": "longitude",
          "type": "int256"
        },
        {
          "internalType": "uint256",
          "name": "timestampMillis",
          "type": "uint256"
        }
      ],
      "name": "postAlert",
      "outputs": [],
      "stateMutability": "nonpayable",
      "type": "function"
    }
  ],
  "bytecode": "0x6080806040523460155761020e908161001b8239f35b600080fdfe608080604052600436101561001357600080fd5b60003560e01c637356bd541461002857600080fd5b34610184576101203660031901126101845760243567ffffffffffffffff81116101845761005a903690600401610189565b9060443567ffffffffffffffff81116101845761007b903690600401610189565b909160643567ffffffffffffffff81116101845761009d903690600401610189565b9160843567ffffffffffffffff8111610184576100be903690600401610189565b91909260a4359467ffffffffffffffff8611610184576101148a98610100986101066101229661013e9d6100f96101309c3690600401610189565b9d909e81815201916101b7565b8d810360208f0152916101b7565b918a830360408c01526101b7565b9187830360608901526101b7565b9184830360808601526101b7565b60c43560a083015260e43560c08301526101043560e08301527f44f8aa5a641246bdfb95179a0ad8c3b80b6f3c4d7c0281a83bad1d257d0bcaa7600435928033930390a3005b600080fd5b9181601f840112156101845782359167ffffffffffffffff8311610184576020838186019501011161018457565b908060209392818452848401376000828201840152601f01601f191601019056fea2646970667358221220e1ce7141efe6786e6e59c991bd776cfde903409fd03b1f4248ca81bdf86057ba64736f6c634300081c0033",
  "linkReferences": {},
  "deployedLinkReferences": {}
}